:020000040000FA
:1030000064EF2CF06AEF2CF070EF2CF07FEF2CF0D7
:1030100080EF2CF086EF2CF0C2EF2CF0D1EF2CF0EB
:10302000B2EF2CF0BAEF2CF0E0EF2CF0AAEF2CF07E
:10303000A4EF2CF08CEF2CF097EF2CF036EF31F062
:1030400037EF31F038EF31F039EF31F0B1EF2CF0EC
:10305000B0EF2CF03AEF31F03BEF31F03CEF31F0D4
:103060001200000012000000120000001200000018
:103070001200000012000000120000001200000008
:10308000FFFFFFFFFFFFFFFFFFFFFFFFFFFFFFFF50
:10309000FFFFFFFFFFFFFFFFFFFFFFFFFFFFFFFF40
:1033000010C0EDFF11C0EDFF12C0EDFF13C0EDFFC7
:1033100014C0EDFF15C0EDFF0001AB51D8A4A9D03A
:10332000050E0001AA5DD8B0CEEF1FF016C0EDFF6C
:1033300017C0EDFF176AAA351736E8341736FC0BAD
:10334000166E000EFB6E330EFA6E620E16261750C6
:10335000FA22D8B0FB2A1650ECCF17F0ECCF16F0BB
:10336000F96EBBEF19F0BDEF19F0F1EF19F031EF85
:103370001AF035EF1AF0CEEF1FF0010E0001AB6F1F
:10338000A5C0ADF082EC16F0000E88EC16F0000E31
:10339000ED6E410EED6EF20EE9EC2FF0020EE92615
:1033A000400E88EC16F0000EED6E410EED6EF80E3C
:1033B000E9EC2FF0020EE926060E88EC16F0000E5E
:1033C000ED6E410EED6EFE0EE9EC2FF0020EE926D9
:1033D000480E88EC16F00001AD5192EC16F0CEEFDD
:1033E0001FF0060E0001AB6FA5C0ADF082EC16F029
:1033F000000E88EC16F0000EED6E420EED6E0A0E19
:10340000E9EC2FF0020EE926400E88EC16F0000ED3
:10341000ED6E420EED6E0C0EE9EC2FF0020EE92679
:10342000010E88EC16F0000EED6E420EED6E0E0EE3
:10343000E9EC2FF0020EE926410E88EC16F0000EA2
:10344000ED6E420EED6E200EE9EC2FF0020EE92635
:103450004B0E88EC16F00001A05192EC16F0CEEF66
:103460001FF00BEC30F0CEEF1FF04CEC30F0CEEF55
:103470001FF00001AB51010A01E08DD0050E0001E3
:10348000AA5DD8B0CEEF1FF016C0EDFF17C0EDFF5C
:10349000176AAA351736E8341736FC0B166E000E7D
:1034A000FB6E340EFA6EBE0E16261750FA22D8B0F6
:1034B000FB2A1650ECCF17F0ECCF16F0F96E69EF3F
:1034C0001AF06BEF1AF07BEF1AF09CEF1AF09CEFFA
:1034D0001AF0CEEF1FF00001AD51ED6E92EC2AF024
:1034E000E92A0001AD51ED6EC4EC2EF0E92A00018D
:1034F000AB6BCEEF1FF00001AB6B82EC16F0000E51
:1035000088EC16F0000EED6E420EED6E320EE9EC18
:103510002FF0020EE926400E88EC16F0000EED6E3C
:10352000420EED6E440EE9EC2FF0020EE926640E19
:10353000FAEC16F0CEEF1FF0AAC010F0116A10508E
:10354000FC0F126EFF0E1120136E125013100AE1C1
:10355000020E0001AD5D02E3AD0714D0640E000160
:10356000AD6F10D0FD0E1026D8A01106105011100E
:1035700009E1640E0001AD5D02E2AD2B03D0010E46
:103580000001AD6F480E88EC16F00001AD5192ECD1
:1035900016F0CEEF1FF0060E0001AB5DD870106A7A
:1035A00010361050D8A4CEEF1FF0050E0001AA5D12
:1035B000D8B0CEEF1FF016C0EDFF17C0EDFF176AB1
:1035C000AA351736E8341736FC0B166E000EFB6E64
:1035D000350EFA6EEC0E16261750FA22D8B0FB2ADA
:1035E0001650ECCF17F0ECCF16F0F96E00EF1BF091
:1035F00002EF1BF05CEF1DF07FEF1DF07FEF1DF081
:10360000CEEF1FF01D0E0001AB5DD8B038EF1DF0FE
:10361000AB2B060EAB5DD8A0CEEF1FF01E0EAB5D40
:10362000D8B0CEEF1FF0FA0EAB25116E16C0EDFF2D
:1036300017C0EDFF176A11341736E8341736FC0B44
:10364000166E000EFB6E360EFA6E620E16261750C0
:10365000FA22D8B0FB2A1650ECCF17F0ECCF16F0B8
:10366000F96E61EF1BF082EF1BF0A3EF1BF0C4EFCC
:103670001BF0E5EF1BF006EF1CF038EF1CF06CEFD1
:103680001CF0A0EF1CF0A0EF1CF0A0EF1CF0A0EFCE
:103690001CF0A0EF1CF0A0EF1CF0A0EF1CF0A0EFBE
:1036A0001CF0ECEF1CF0ECEF1CF0ECEF1CF0ECEF7E
:1036B0001CF0ECEF1CF0ECEF1CF0ECEF1CF0ECEF6E
:1036C0001CF0010E88EC16F0000EED6E420EED6E51
:1036D0000E0EE9EC2FF0020EE926410E88EC16F0F2
:1036E000000EED6E420EED6E200EE9EC2FF0020E94
:1036F000E9264B0E88EC16F00001A05192EC16F072
:10370000CEEF1FF0010E88EC16F0000EED6E420EAB
:10371000ED6E560EE9EC2FF0020EE926410E88EC14
:1037200016F0000EED6E420EED6E200EE9EC2FF05D
:10373000020EE9264B0E88EC16F00001A15192EC26
:1037400016F0CEEF1FF0010E88EC16F0000EED6EB5
:10375000420EED6E680EE9EC2FF0020EE926410EE6
:1037600088EC16F0000EED6E420EED6E200EE9ECC8
:103770002FF0020EE9264B0E88EC16F00001A25144
:1037800092EC16F0CEEF1FF0010E88EC16F0000E52
:10379000ED6E420EED6E7A0EE9EC2FF0020EE92688
:1037A000410E88EC16F0000EED6E420EED6E200E0E
:1037B000E9EC2FF0020EE9264B0E88EC16F0000122
:1037C000A35192EC16F0CEEF1FF0010E88EC16F02C
:1037D000000EED6E420EED6E8C0EE9EC2FF0020E37
:1037E000E926410E88EC16F0000EED6E420EED6EED
:1037F0009E0EE9EC2FF0020EE926470E88EC16F03B
:103800000001A45190EC16F0CEEF1FF0010E88ECF1
:1038100016F0000EED6E420EED6EB00EE9EC2FF0DC
:10382000020EE926410E88EC16F0000EED6E420EF7
:10383000ED6E9E0EE9EC2FF0020EE9260001A95173
:103840000EE1410E88EC16F0000EED6E420EED6EAC
:10385000C20EE9EC2FF0020EE926CEEF1FF0470E64
:1038600088EC16F00001A95190EC16F0CEEF1FF095
:10387000010E88EC16F0000EED6E420EED6ED40EC9
:10388000E9EC2FF0020EE926410E88EC16F0000E4E
:10389000ED6E420EED6E9E0EE9EC2FF0020EE92663
:1038A000470E88EC16F00001A6510BE0000EED6EFD
:1038B000420EED6EE60EE9EC2FF0020EE926CEEF99
:1038C0001FF0000EED6E420EED6EEA0EE9EC2FF0E9
:1038D000020EE926CEEF1FF0010E88EC16F0000E66
:1038E000ED6E420EED6EEE0EE9EC2FF0020EE926C3
:1038F000410E88EC16F0000EED6E420EED6E9E0E3F
:10390000E9EC2FF0020EE926470E88EC16F00001D4
:10391000A7510BE0000EED6E420EED6EE60EE9ECE7
:103920002FF0020EE926CEEF1FF0000EED6E420ED4
:10393000ED6EEA0EE9EC2FF0020EE926CEEF1FF055
:10394000010E88EC16F0000EED6E430EED6E000ECB
:10395000E9EC2FF0020EE926090E88EC16F0F30EC2
:103960000001AB25116E11508EEC16F0410E88EC63
:1039700016F0000EED6E420EED6E9E0EE9EC2FF08D
:10398000020EE926430E88EC16F0F20E0001AB257C
:10399000116E126A800E1126000E122211C0E1FF74
:1039A00012C0E2FFE7CF11F011500BE0000EED6EF8
:1039B000430EED6E100EE9EC2FF0020EE926CEEF6D
:1039C0001FF0000EED6E430EED6E1A0EE9EC2FF0B7
:1039D000020EE926CEEF1FF0010E88EC16F0000E65
:1039E000ED6E430EED6E220EE9EC2FF0020EE9268D
:1039F000090E88EC16F0EB0E0001AB25116E11508C
:103A00008EEC16F0410E88EC16F0000EED6E420EB4
:103A1000ED6E9E0EE9EC2FF0020EE926430E88ECC7
:103A200016F0EA0E0001AB25116E126A900E1126F7
:103A3000000E122211C0E1FF12C0E2FFE7CF11F029
:103A400011500BE0000EED6E430EED6E320EE9EC00
:103A50002FF0020EE926CEEF1FF0000EED6E430EA2
:103A6000ED6E380EE9EC2FF0020EE926CEEF1FF0D6
:103A7000060E0001AB6F010E88EC16F0000EED6E25
:103A8000420EED6E0E0EE9EC2FF0020EE926410E0D
:103A900088EC16F0000EED6E420EED6E200EE9EC95
:103AA0002FF0020EE9264A0E88EC16F00001A05114
:103AB00092EC16F0CEEF1FF0DDEC29F00001AB6BBD
:103AC00082EC16F0000E88EC16F0000EED6E430E40
:103AD000ED6E3E0EE9EC2FF0020EE926400E88EC6A
:103AE00016F0000EED6E420EED6E440EE9EC2FF076
:103AF000020EE926640EFAEC16F0CEEF1FF010501D
:103B0000D8A4CEEF1FF01E0E0001AB5DD8B0CEEFF3
:103B10001FF0FA0EAB25106E16C0EDFF17C0EDFFBB
:103B2000176A10341736E8341736FC0B166E000E81
:103B3000FB6E3B0EFA6E4E0E16261750FA22D8B0C8
:103B4000FB2A1650ECCF17F0ECCF16F0F96ED7EF3A
:103B50001DF0D7EF1DF0D7EF1DF0D7EF1DF045EFAB
:103B60001EF08AEF1EF0D7EF1EF004EF1FF031EFCA
:103B70001FF031EF1FF031EF1FF031EF1FF031EF89
:103B80001FF031EF1FF031EF1FF031EF1FF080EF2A
:103B90001FF080EF1FF080EF1FF080EF1FF080EF2D
:103BA0001FF080EF1FF080EF1FF080EF1FF0AAC022
:103BB00011F0126A1150FC0F136EFF0E1220146EDA
:103BC000135014101DE1A00E1024136E146A000E81
:103BD000142213C0E1FF14C0E2FFE7CF15F0155027
:103BE00008E0150613C0E1FF14C0E2FF15C0E7FFAF
:103BF0002AD013C0E1FF14C0E2FF640EE76E23D0A9
:103C0000FD0E1126D8A01206115012101CE1116AE7
:103C1000A00E1026000E112210C0E1FF11C0E2FF1D
:103C2000E7CF12F0640E125C08E2122A10C0E1FF26
:103C300011C0E2FF12C0E7FF06D010C0E1FF11C0C3
:103C4000E2FF000EE76E410E88EC16F0000EED6EFE
:103C5000420EED6E200EE9EC2FF0020EE9264B0E1F
:103C600088EC16F0FA0E0001AB25106E116AA00E5A
:103C70001026000E112210C0E1FF11C0E2FFE7CFB5
:103C800010F0105092EC16F089D1AAC010F0116A11
:103C90001050FC0F126EFF0E1120136E12501310F5
:103CA00009E10001A45102E0A40713D0100E0001A5
:103CB000A46F0FD0FD0E1026D8A0110610501110C1
:103CC00008E1100E0001A45D02E2A42B02D0000165
:103CD000A46B410E88EC16F0000EED6E420EED6EF8
:103CE0009E0EE9EC2FF0020EE926470E88EC16F046
:103CF0000001A4510AE1000EED6E430EED6E500E70
:103D0000E9EC2FF0020EE92649D10001A45190EC14
:103D100016F044D1AAC010F0116A1050FC0F126EB8
:103D2000FF0E1120136E1250131009E10001A9516A
:103D300002E0A90713D0640E0001A96F0FD0FD0E99
:103D40001026D8A011061050111008E1640E0001D1
:103D5000A95D02E2A92B02D00001A96B410E88ECFB
:103D600016F0000EED6E420EED6E9E0EE9EC2FF099
:103D7000020EE9260001A9510FE1410E88EC16F070
:103D8000000EED6E420EED6EC20EE9EC2FF0020E4B
:103D9000E9260001A86B02D1470E88EC16F000015D
:103DA000A95190EC16F0010E0001A86FF7D00001A8
:103DB000A651D880E866D890A66BA637410E88EC4D
:103DC00016F0000EED6E420EED6E9E0EE9EC2FF039
:103DD000020EE926470E88EC16F00001A6510AE013
:103DE000000EED6E420EED6EE60EE9EC2FF0020EC7
:103DF000E926D4D0000EED6E420EED6EEA0EE9EC2F
:103E00002FF0020EE926CAD00001A751D880E8663B
:103E1000D890A76BA737410E88EC16F0000EED6E18
:103E2000420EED6E9E0EE9EC2FF0020EE926470ED3
:103E300088EC16F00001A7510AE0000EED6E420E6C
:103E4000ED6EE60EE9EC2FF0020EE926A7D0000E8B
:103E5000ED6E420EED6EEA0EE9EC2FF0020EE92651
:103E60009DD0F20E0001AB25106E116A800E102657
:103E7000000E112210C0E1FF11C0E2FFE7CF12F0E7
:103E80001250D880E866D890126A123610C0E1FF4E
:103E900011C0E2FF12C0E7FF410E88EC16F0000EE1
:103EA000ED6E420EED6E9E0EE9EC2FF0020EE9264D
:103EB000430E88EC16F0F20E0001AB25106E116A6D
:103EC000800E1026000E112210C0E1FF11C0E2FF8B
:103ED000E7CF10F010500AE0000EED6E430EED6ECD
:103EE000100EE9EC2FF0020EE92658D0000EED6E10
:103EF000430EED6E1A0EE9EC2FF0020EE9264ED0BD
:103F0000EA0E0001AB25106E116A900E1026000E0D
:103F1000112210C0E1FF11C0E2FFE7CF12F01250F2
:103F2000D880E866D890126A123610C0E1FF11C03E
:103F3000E2FF12C0E7FF410E88EC16F0000EED6EB6
:103F4000420EED6E9E0EE9EC2FF0020EE926430EB6
:103F500088EC16F0EA0E0001AB25106E116A900E87
:103F60001026000E112210C0E1FF11C0E2FFE7CFC2
:103F700010F010500AE0000EED6E430EED6E320EA2
:103F8000E9EC2FF0020EE92609D0000EED6E430E8B
:103F9000ED6E380EE9EC2FF0020EE9260001AA6B57
:103FA000ECCF15F0ECCF14F0ECCF13F0ECCF12F017
:103FB000ECCF11F0ECCF10F0120000010203040569
:103FC000060708090A0B0C0D0E0F17161514000131
:103FD0000203040506070B0A08090E0F0D0C5265B3
:103FE0006C617900206F726967696E616C2073740F
:103FF00061746500546F67676C65642072656C61FD
:1040000079005075736865642072656C6179000091
:1040100020746F207374617465005365742041636C
:104020007469766520707265736574002A2A20436E
:1040300068616E676520746F20202A2A00002A2A92
:104040002050726573657420202020202A2A0000E9
:10405000466F6F74737769746368204C656473206E
:104060004F666600466F6F74737769746368204C9F
:1040700065643A200000204F6E0052654C6F616409
:10408000696E672061637469766520707265736517
:1040900074004E4F542052654C6F6164696E672006
:1040A00061637469766520707265736574004C6F26
:1040B0006164696E6720707265736574200044697D
:1040C00073636172646564206C6F6164696E6720FC
:1040D000707265736574200052656C61797320732A
:1040E000746174652062797465203A20000053651C
:1040F0006E64206D696469203F00206D69646920E9
:104100006D657373616765203A00446F6E27742094
:104110007075736820616E20616C726561647920CE
:1041200061637469766520726164696F2072656C81
:104130006179000043616E6E6F7420536176652073
:10414000746F00005072657365742030000044691C
:104150007363617264656420736176696E67207051
:1041600072657365742000002A2A20205341564549
:104170004420746F20202A2A000049676E6F726500
:10418000642C20616C7265616479206174206869B7
:1041900067686573742070726573657400004967A1
:1041A0006E6F7265642C20616C7265616479206148
:1041B00074206C6F7765737420707265736574001A
:1041C000466163746F72792052657365740053544D
:1041D00041525455502050524553455400004170AF
:1041E000706C69636174696F6E2072656164792EA9
:1041F00000005341564500004241434B0000746F9C
:10420000207072657365742000003E00510020200C
:10421000466F6F74737769746368203120200000E3
:1042200020205072657365742020202020202020DB
:1042300000002A2A2020204E6F7468696E672020B3
:104240002A2A00002A2A2020202053617665642033
:1042500020202A2A00002020466F6F74737769742B
:1042600063682032202000002020466F6F7473772F
:10427000697463682033202000002020466F6F742B
:1042800073776974636820342020000020204D4932
:104290004449206368616E6E656C20200000202018
:1042A000202020202020202020202020202000004E
:1042B0002053746172747570205072657365742038
:1042C0000000202A2A204C617374205573656420F5
:1042D0002A2A0000202053656E64204D494449205D
:1042E0003F2020200000596573004E6F00002052CF
:1042F000656C6F616420416374697665203F0000DE
:10430000204F7574707574202020747970652000BA
:104310004D6F6D656E7461727900546F67676C657F
:104320000000204F75747075742020206D6F6465D7
:104330002000526164696F004672656500002A2A98
:104340002020204F7074696F6E7320202A2A00008D
:10435000416C6C0050524F4700004F5054530000C6
:104360005072657365742000526563656976656493
:10437000204D696469204D657373616765203A203B
:10438000000049676E6F7265642C20426164204DA5
:10439000494449206368616E6E656C0049676E6FC1
:1043A0007265642C206E6F742061205043206D650F
:1043B00073736167650050430000203A204C6F61C1
:1043C00064696E672070726573657400203A2054CA
:1043D0006F67676C652052656C617900205374616A
:1043E000747573005043313039203A205570206F76
:1043F0006E65207072657365740066726F6D000083
:10440000746F000049676E6F726564204D6964695E
:1044100020496E206D6573736167653A20005043D3
:10442000206E756D62657220746F6F2068696768B1
:104430000000466F6F747377697463683A200000F8
:10444000646570726573736564007072657373651B
:104450006400427574746F6E3A2000004E4F5448E9
:10446000494E4720544F20444F20494E2044494E46
:10447000204E4F5449465900D9CFEDFFE9CFD9FF1F
:1044800010C0EDFF11C0EDFF12C0EDFF13C0EDFF36
:1044900014C0EDFF15C0EDFF16C0EDFF17C0EDFF16
:1044A00018C0EDFF19C0EDFF020EDBCF10F0116A4E
:1044B000126A0001A55110181FE10001A7510EE07A
:1044C0003CEC2BF0000EED6E400EED6E7A0EBBEC68
:1044D0002BF0020EE92656EC2BF01ED03CEC2BF014
:1044E000000EED6E400EED6E920EBBEC2BF0020E48
:1044F000E92656EC2BF0E9D13CEC2BF0000EED6EEA
:10450000400EED6EAE0EBBEC2BF0020EE926105005
:1045100088EC2BF056EC2BF06A0E105C11E33CECAF
:104520002BF0000EED6E400EED6EBE0EBBEC2BF0D0
:10453000020EE926105088EC2BF056EC2BF0C5D17A
:10454000100E1024136E13509AEC31F0136E010EFE
:104550001314146E14500001986F020E1314146E8D
:1045600014407F0B146E1450996F040E1314146EC4
:104570001440E8403F0B146E14509A6F080E131449
:10458000146E1438E8441F0B146E14509B6F100EF9
:104590001314146E14380F0B146E14509C6F200EED
:1045A0001314146E1438E840070B146E14509D6FEA
:1045B000400E1314146E1444E844030B146E14508C
:1045C0009E6F800E1314146E1444010B146E14505D
:1045D0009F6F3CEC2BF0000EED6E400EED6ED80E92
:1045E000BBEC2BF0020EE926135088EC2BF056ECB6
:1045F0002BF03CEC2BF0000EED6E400EED6EEE0E4F
:10460000BBEC2BF0020EE9260001A65179EC2BF051
:1046100056EC2BF00001A65127E000EC16F0BF0E7F
:104620000001A425136E135024EC16F01004136E31
:10463000135024EC16F008EC16F03CEC2BF0000EB6
:10464000ED6E400EED6EFA0EBBEC2BF0020EE9267D
:10465000BF0E0001A425146E145088EC2BF01350EB
:1046600088EC2BF056EC2BF0136A146A000E145CE5
:1046700002E1080E135CD8B0CBD0900E1324156E57
:10468000000E1420166E15C0E1FF16C0E2FFE7CF42
:1046900015F01550D8A454D0C20E1324156E3F0E39
:1046A0001420166E176A000E172215C0F6FF16C0EA
:1046B000F7FF17C0F8FF0900F5CF15F0980E132487
:1046C000166E000E1420176E16C0E1FF17C0E2FF31
:1046D000E7CF18F01850ED6E155059EC31F0E92A7B
:1046E000BA0E1324156E3F0E1420186E196A000EB0
:1046F000192215C0F6FF18C0F7FF19C0F8FF09000E
:10470000F5CF15F016C0E1FF17C0E2FFE7CF18F0B4
:104710001850ED6E155059EC31F0E92A880E13242B
:10472000156E000E1420186E16C0E1FF17C0E2FFD0
:10473000E7CF16F015C0E1FF18C0E2FF16C0E7FF93
:10474000900E1324156E000E1420166E15C0E1FF96
:1047500016C0E2FFE7CF15F01550010A01E054D072
:10476000980E1324156E000E1420166E15C0E1FF6E
:1047700016C0E2FFE7CF15F01550010A01E044D062
:10478000010E116E126A880E1324156E000E14208D
:10479000166E15C0E1FF16C0E2FFE7CF15F0155009
:1047A000010A2BE13CEC2BF0000EED6E410EED6E9C
:1047B0000A0EBBEC2BF0020EE9261350156E1550B5
:1047C00088EC2BF056EC2BF0BA0E1324156E3F0E2E
:1047D0001420166E176A000E172215C0F6FF16C0B9
:1047E000F7FF17C0F8FF0900F5CF15F0010EED6EC9
:1047F000155059EC31F0E92A07D01350156E1550B9
:10480000ED6E41EC27F0E92A132AD8B0142A2ED7EE
:104810001150121031E1116A126A000E125C02E1AD
:10482000080E115C29E2900E1124136E000E122066
:10483000146E13C0E1FF14C0E2FFE7CF13F0135072
:10484000010A16E1880E1124136E000E1220146E58
:1048500013C0E1FF14C0E2FFE7CF13F01350010AC9
:1048600007E11150136E1350ED6E41EC27F0E92A69
:10487000112AD8B0122AD1D70FEC2FF0116A126A80
:10488000000E125C02E1040E115C1AE2A00E11246B
:10489000136E000E1220146E13C0E1FF14C0E2FF6D
:1048A000E7CF13F01350101807E11150136E135097
:1048B000ED6E63EC2DF0E92A112AD8B0122AE0D768
:1048C0001050ED6EC4EC2EF0E92AECCF19F0ECCFCD
:1048D00018F0ECCF17F0ECCF16F0ECCF15F0ECCFD2
:1048E00014F0ECCF13F0ECCF12F0ECCF11F0ECCFD2
:1048F00010F0ECCFD9FF1200D9CFEDFFE9CFD9FFEF
:1049000010C0EDFF11C0EDFF12C0EDFF13C0EDFFB1
:1049100014C0EDFF020EDBCF10F0800E1024116EDC
:10492000126A000E122211C0E1FF12C0E2FFE7CFAF
:1049300011F01150D8A48DD03CEC2BF0000EED6E90
:104940003F0EED6EDE0EBBEC2BF0020EE926105092
:1049500088EC2BF0000EED6E3F0EED6EE40EBBEC1E
:104960002BF0020EE926880E1024126E136A000E38
:10497000132212C0E1FF13C0E2FFE7CF12F0125082
:1049800088EC2BF056EC2BF0C20E1024126E136A3A
:104990003F0E1322146A000E142212C0F6FF13C039
:1049A000F7FF14C0F8FF0900F5CF12F0880E1024AD
:1049B000136E146A000E142213C0E1FF14C0E2FF4C
:1049C000E7CF13F0135002E0136A02D0010E136E0A
:1049D0001350ED6E125059EC31F0E92ABA0E102442
:1049E000126E136A3F0E1322146A000E142212C0B4
:1049F000F6FF13C0F7FF14C0F8FF0900F5CF12F05F
:104A0000880E1024136E146A000E142213C0E1FFE6
:104A100014C0E2FFE7CF13F0135002E0136A02D094
:104A2000010E136E1350ED6E125059EC31F0E92A5D
:104A30003CEC2BF0000EED6E3F0EED6EF40EBBEC79
:104A40002BF0020EE926105088EC2BF056EC2BF0E0
:104A50007AD01150010A01E076D0C20E1024116EF6
:104A6000126A3F0E1222136A000E132211C0F6FFC3
:104A700012C0F7FF13C0F8FF0900F5CF11F0115075
:104A800064EC16F0C80ECEEC16F0C20E1024116EB7
:104A9000126A3F0E1222136A000E132211C0F6FF93
:104AA00012C0F7FF13C0F8FF0900F5CF11F0115045
:104AB00062EC16F0880E1024116E126A000E12229B
:104AC00011C0E1FF12C0E2FFE7CF11F0115016E173
:104AD000BA0E1024116E126A3F0E1222136A000ED3
:104AE000132211C0F6FF12C0F7FF13C0F8FF090030
:104AF000F5CF11F0115064EC16F015D0BA0E102459
:104B0000116E126A3F0E1222136A000E132211C098
:104B1000F6FF12C0F7FF13C0F8FF0900F5CF11F040
:104B2000115062EC16F03CEC2BF0000EED6E400ED6
:104B3000ED6E020EBBEC2BF0020EE926105088EC55
:104B40002BF056EC2BF0880E1024116E126A000E1A
:104B5000122211C0E1FF12C0E2FFE7CF13F01350A1
:104B600007E011C0E1FF12C0E2FF000EE76E06D0C1
:104B700011C0E1FF12C0E2FF010EE76E3CEC2BF02A
:104B8000000EED6E400EED6E100EBBEC2BF0020E23
:104B9000E926116A880E1026000E112210C0E1FFCE
:104BA00011C0E2FFE7CF10F0105088EC2BF056EC6C
:104BB0002BF0ECCF14F0ECCF13F0ECCF12F0ECCFE5
:104BC00011F0ECCF10F0ECCFD9FF1200D9CFEDFFF0
:104BD000E9CFD9FF10C0EDFF11C0EDFF12C0EDFF0E
:104BE00013C0EDFF14C0EDFF15C0EDFF16C0EDFFC3
:104BF000106E020EDBCF11F0030EDBCF12F03CEC97
:104C00002BF0000EED6E430EED6E680EBBEC2BF03C
:104C1000020EE926105088EC2BF0200E5AEC2BF0F7
:104C2000115088EC2BF0200E5AEC2BF0125088EC2F
:104C30002BF056EC2BF0010E0001AC6F0001A451DB
:104C40001FE00F0E1014136EA4C014F0156AFF0EAF
:104C50001426D8A01506166A1350141803E116502E
:104C600015180EE03CEC2BF0000EED6E430EED6ED1
:104C7000820EBBEC2BF0020EE92656EC2BF0F0D0A6
:104C8000F00E1014136E1350C00A0EE03CEC2BF023
:104C9000000EED6E430EED6E9C0EBBEC2BF0020E83
:104CA000E92656EC2BF0DCD0640E115C21E23CECE2
:104CB0002BF0000EED6E430EED6EB60EBBEC2BF03E
:104CC000020EE926115088EC2BF0000EED6E430E1B
:104CD000ED6EBA0EBBEC2BF0020EE92656EC2BF073
:104CE0001128136E1350ED6E3CEC22F0E92AB8D077
:104CF0006C0E115C31E23CEC2BF0000EED6E430EBD
:104D0000ED6EB60EBBEC2BF0020EE926115088ECCE
:104D10002BF0000EED6E430EED6ECC0EBBEC2BF0C7
:104D2000020EE9269D0E1124136E135088EC2BF011
:104D3000000EED6E430EED6EDC0EBBEC2BF0020EA2
:104D4000E92656EC2BF09C0E1124136E1350ED6ED9
:104D500041EC27F0E92A84D011506C0A2DE13CEC9B
:104D60002BF0000EED6E430EED6EE40EBBEC2BF05F
:104D7000020EE926000EED6E430EED6EFA0EBBEC50
:104D80002BF0020EE9260001A55188EC2BF0000E55
:104D9000ED6E440EED6E000EBBEC2BF0020EE9261C
:104DA000115088EC2BF056EC2BF00BEC30F0136E1E
:104DB0001350D8A455D054D011506D0A2CE13CECBE
:104DC0002BF0000EED6E430EED6EE40EBBEC2BF0FF
:104DD000020EE926000EED6E430EED6EFA0EBBECF0
:104DE0002BF0020EE9260001A55188EC2BF0000EF5
:104DF000ED6E440EED6E000EBBEC2BF0020EE926BC
:104E0000115088EC2BF056EC2BF04CEC30F0136E7C
:104E1000135026E125D03CEC2BF0000EED6E440E35
:104E2000ED6E040EBBEC2BF0020EE926105088EC60
:104E30002BF0200E5AEC2BF0115088EC2BF0200EAA
:104E40005AEC2BF0125088EC2BF0000EED6E440E55
:104E5000ED6E1E0EBBEC2BF0020EE92656EC2BF08D
:104E6000ECCF16F0ECCF15F0ECCF14F0ECCF13F044
:104E7000ECCF12F0ECCF11F0ECCF10F0ECCFD9FF6B
:104E80001200D9CFEDFFE9CFD9FF10C0EDFF11C05F
:104E9000EDFF12C0EDFF13C0EDFF14C0EDFF15C014
:104EA000EDFF16C0EDFF020EDBCF10F0116A900E81
:104EB0001024126E136A000E132212C0E1FF13C0F9
:104EC000E2FFE7CF12F0125006E11050ED6E7CECDD
:104ED00024F0E92ABED01250010A01E0BAD0880EAF
:104EE0001024126E136A000E132212C0E1FF13C0C9
:104EF000E2FFE7CF12F01250010A06E11050ED6E0A
:104F00007CEC24F0E92AA5D0126A136A000E135C27
:104F100002E1080E125CD8B095D0900E1224146EE7
:104F2000000E1320156E14C0E1FF15C0E2FFE7CF9D
:104F300014F01450010A01E081D0880E1224146E7E
:104F4000000E1320156E14C0E1FF15C0E2FFE7CF7D
:104F500014F01450010A01E071D0BA0E1224146E3C
:104F60003F0E1320156E166A000E162214C0F6FFAF
:104F700015C0F7FF16C0F8FF0900F5CF14F0145064
:104F800062EC16F0C20E1024146E156A3F0E152244
:104F9000166A000E162214C0F6FF15C0F7FF16C0E1
:104FA000F8FF0900F5CF14F0145064EC16F0C80EA9
:104FB000CEEC16F0C20E1024146E156A3F0E1522A8
:104FC000166A000E162214C0F6FF15C0F7FF16C0B1
:104FD000F8FF0900F5CF14F0145062EC16F0BA0E89
:104FE0001024146E156A3F0E1522166A000E162242
:104FF00014C0F6FF15C0F7FF16C0F8FF0900F5CF83
:1050000014F0145064EC16F0010E116E880E122488
:10501000146E000E1320156E14C0E1FF15C0E2FFE0
:10502000000EE76E880E1024146E156A000E15220D
:1050300014C0E1FF15C0E2FF010EE76E122AD8B0DE
:10504000132A64D7115005E11050ED6E7CEC24F06A
:10505000E92AECCF16F0ECCF15F0ECCF14F0ECCF42
:1050600013F0ECCF12F0ECCF11F0ECCF10F0ECCF4E
:10507000D9FF120010C0EDFF11C0EDFF000E9AEC39
:1050800031F0106E0F0E10140001A46F100E1014EA
:10509000116E11380F0B0001A66F200E1014116E47
:1050A0001138E840070B0001A76F400E1014116E75
:1050B0001144E844030B0001A86F010E9AEC31F093
:1050C0000001A56F020E9AEC31F0106E010E101463
:1050D000116E11500001806F020E1014116E1140FC
:1050E0007F0B116E1150816F040E1014116E114060
:1050F000E8403F0B116E1150826F080E1014116EB4
:105100001138E8441F0B116E1150836F100E1014EC
:10511000116E11380F0B116E1150846F200E101488
:10512000116E1138E840070B116E1150856F400E5B
:105130001014116E1144E844030B116E1150866F68
:10514000800E1014116E1144010B116E1150876FF7
:10515000030E9AEC31F0106E010E1014116E115006
:105160000001906F020E1014116E11407F0B116E32
:105170001150916F040E1014116E1140E8403F0B56
:10518000116E1150926F080E1014116E1138E84410
:105190001F0B116E1150936F100E1014116E1138F9
:1051A0000F0B116E1150946F200E1014116E1138E8
:1051B000E840070B116E1150956F400E1014116EE0
:1051C0001144E844030B116E1150966F800E1016B7
:1051D0001044010B106E1050976F040E9AEC31F0D2
:1051E000106E10500001A06F050E9AEC31F0106E99
:1051F00010500001A16F060E9AEC31F0106E1050A5
:105200000001A26F070E9AEC31F0106E10500001F1
:10521000A36F080E9AEC31F00001A96FECCF11F0EA
:10522000ECCF10F01200D9CFEDFFE9CFD9FF10C0BD
:10523000EDFF11C0EDFF12C0EDFF13C0EDFF14C074
:10524000EDFF15C0EDFF106E020EDBCF11F0105018
:10525000ED6E6DEC2EF0126EE92A1250D8B43ED0ED
:105260003CEC2BF0000EED6E440EED6E320EBBECFE
:105270002BF0020EE926105088EC2BF0200E5AEC91
:105280002BF0115007E0400E136E440E146E000E0A
:10529000156E06D04A0E136E440E146E000E156E77
:1052A0001550ED6E1450ED6E1350BBEC2BF0020E4A
:1052B000E92656EC2BF01204136E146AA00E132686
:1052C000000E142213C0E1FF14C0E2FFE7CF13F079
:1052D0001350ED6E3CEC22F0E92A60D01150D8A4B6
:1052E0005DD03CEC2BF0000EED6E440EED6E520ED8
:1052F000BBEC2BF0020EE926105088EC2BF0200EB0
:105300005AEC2BF0115007E0400E116E440E136E54
:10531000000E146E06D04A0E116E440E136E000E6F
:10532000146E1450ED6E1350ED6E1150BBEC2BF05B
:10533000020EE92656EC2BF01050ED6E16EC2EF016
:10534000126EE92A125008E01204116E1150ED6E2F
:1053500041EC27F0E92A22D01050ED6EBFEC2DF081
:10536000126EE92A1250010A09E01250020A06E000
:105370001250030A03E01250040A03E112C0AAF01B
:105380000DD03CEC2BF0000EED6E440EED6E5C0E7D
:10539000BBEC2BF0020EE92656EC2BF0ECCF15F00F
:1053A000ECCF14F0ECCF13F0ECCF12F0ECCF11F007
:1053B000ECCF10F0ECCFD9FF120010C0EDFF11C000
:1053C000EDFF0F0E0001A415106E0001A639F00BC1
:1053D000116E115010120001A739E844E00B116E54
:1053E000115010120001A841E840C00B116E11507D
:1053F00010121050ED6E000E89EC31F0E92A000118
:10540000A551ED6E010E89EC31F0E92A80C010F053
:1054100000018145FE0B116E115010128245E844C7
:10542000FC0B116E115010128339E840F80B116E0D
:10543000115010128439F00B116E11501012853971
:10544000E844E00B116E115010128641E840C00B89
:10545000116E115010128741800B116E11501012F5
:105460001050ED6E020E89EC31F0E92A90C010F078
:1054700000019145FE0B116E115010129245E84447
:10548000FC0B116E115010129339E840F80B116E9D
:10549000115010129439F00B116E115010129539F1
:1054A000E844E00B116E115010129641E840C00B19
:1054B000116E115010129741800B116E1150101285
:1054C0001050ED6E030E89EC31F0E92AA0C010F007
:1054D0001050ED6E040E89EC31F0E92AA1C010F0F5
:1054E0001050ED6E050E89EC31F0E92AA2C010F0E3
:1054F0001050ED6E060E89EC31F0E92AA3C010F0D1
:105500001050ED6E070E89EC31F0E92A0001A95127
:10551000ED6E080E89EC31F0E92AECCF11F0ECCFFA
:1055200010F01200D9CFEDFFE9CFD9FF10C0EDFF89
:1055300011C0EDFF12C0EDFF020EDBCF10F01050D6
:105540001EE182EC16F0000E88EC16F0000EED6EF7
:10555000410EED6E340EE9EC2FF0020EE926400EFE
:1055600088EC16F0000EED6E410EED6E440EE9EC87
:105570002FF0020EE926FF0EFAEC16F074D06A0E38
:10558000105C11E33CEC2BF0000EED6E410EED6E65
:105590004E0EBBEC2BF0020EE926105088EC2BF0DF
:1055A00056EC2BF060D00001A551ED6E010E89EC98
:1055B00031F0E92A88C011F000018945FE0B126E16
:1055C000125011128A45E844FC0B126E125011124F
:1055D0008B39E840F80B126E125011128C39F00B17
:1055E000126E125011128D39E844E00B126E1250F7
:1055F00011128E41E840C00B126E125011128F41F1
:10560000800B126E12501112100E1024126E1150D7
:10561000ED6E125089EC31F0E92A10C0A5F082EC51
:1056200016F0000E88EC16F0000EED6E410EED6ED9
:10563000680EE9EC2FF0020EE926400E88EC16F019
:10564000000EED6E400EED6E3E0EE9EC2FF0020EF8
:10565000E9264A0E88EC16F00001A55192EC16F0EE
:10566000640EFAEC16F0ECCF12F0ECCF11F0ECCFA8
:1056700010F0ECCFD9FF1200F00E24EC16F0000E63
:1056800024EC16F0000E24EC16F07E0E24EC16F03E
:10569000320E24EC16F004EC16F024EC16F00D0E8D
:1056A00024EC16F0400E24EC16F01200F70E24EC59
:1056B00016F012007F0B24EF16F0FDCFF6FFFECFA1
:1056C000F7FFFFCFF8FF0900F55002E0F3DFFBD74B
:1056D000F650010B05E0F62AD8B4F72AD8B4F82A18
:1056E000F29EF650FD6EF750FE6EF850FF6EF28E91
:1056F00012000F0BF60FD8B0070F3A0FDBD7F36E7F
:10570000F338F7DFF350F5D7036AF4EC16F018D04E
:10571000036AF4EC16F00FD0F4EC16F007D0F4ECBA
:1057200016F005500F0B12E1200EC4DF04380F0BEA
:105730000EE1200EBFDF04500F0B0BE1200EBADF8D
:1057400003380F0B08E1200EB5DF07D0D2DF043895
:10575000D0DF0450CEDF0338CCDF0350CAD7E9CF07
:10576000D9FFDCCF03F08CEF2BF0E9CFD9FFDCCFF2
:1057700003F08FEF2BF0F66EE9CFD9FFDCCFF7FF08
:10578000DC50E8BE08D0F86E0900F55003E05AEC92
:105790002BF0FAD71200D9CF06F0DACF07F0F6CF08
:1057A000D9FFF7CFDAFFDE5003E05AEC2BF0FBD73E
:1057B00006C0D9FF07C0DAFF120010C0EDFF11C00C
:1057C000EDFF12C0EDFF13C0EDFF106A3CEC2BF0B3
:1057D000000EED6E410EED6EC00EBBEC2BF0020E16
:1057E000E92656EC2BF0000EED6E000E89EC31F040
:1057F000E92A000EED6EC4EC2EF0E92A000EED6EE3
:10580000020E89EC31F0E92A000EED6E030E89ECF0
:1058100031F0E92A010EED6E040E89EC31F0E92A2F
:10582000020EED6E050E89EC31F0E92A030EED6EE5
:10583000060E89EC31F0E92A040EED6E070E89ECB4
:1058400031F0E92A000EED6E070E89EC31F0E92AFD
:10585000080E116E126A000E125C02E1100E115C4D
:105860000CE21150136E000EED6E135089EC31F006
:10587000E92A112AD8B0122AEED7116A126A000E4C
:10588000125C02E1640E115C11E21150136E100EF5
:105890001326000EED6E135089EC31F0136EE92AD9
:1058A00013501012112AD8B0122AE9D7105002E072
:1058B000E86A01D0010EECCF13F0ECCF12F0ECCF80
:1058C00011F0ECCF10F0120003EE7FF023EE7FF02A
:1058D00055EF2FF003EE7FF023EE7FF080EF19F00D
:1058E00023EE3FF0E9CFDDFFEACFDDFF03EE3DF031
:1058F000A2EC31F03FC3E9FF3EC3EAFF1200120001
:1059000003EE7FF023EE7FF0BBEF2FF003EE7FF08E
:1059100023EE7FF06CEF30F003EE7FF023EE7FF0AC
:1059200005C0EDFF04C0EDFF0350E6EF25F003EEE8
:105930007FF023EE7FF005C0EDFF04C0EDFF03C054
:10594000EDFFED6E52EF31F003EE7FF023EE7FF0CE
:10595000A1EF31F003EE7FF023EE7FF04BEF31F05B
:105960001200120003EE7FF023EE7FF004C0EDFF83
:1059700013EF29F003EE7FF023EE7FF004C0EDFF7C
:1059800044EF31F023EE3FF0E9CFDDFFEACFDDFF5A
:1059900003EE3DF0A0EC31F03FC3E9FF3EC3EAFF68
:1059A000120023EE3FF0E9CFDDFFEACFDDFF03EE8B
:1059B0003DF09FEC31F03FC3E9FF3EC3EAFF120028
:1059C00003EE7FF023EE7FF005C0EDFF04C0EDFF96
:1059D0003DEF31F010C0EDFF11C0EDFF12C0EDFF43
:1059E00013C0EDFF0001A46B010E0001A56F0001C3
:1059F000A66B106A116A000E115C02E1050E105CC4
:105A000028E2800E1024126E000E1120136E12C0B8
:105A1000E1FF13C0E2FF000EE76E900E1024126E3D
:105A2000000E1120136E12C0E1FF13C0E2FF000E42
:105A3000E76E880E1024126E000E1120136E12C035
:105A4000E1FF13C0E2FF000EE76E102AD8B0112A62
:105A5000D2D7050E106E116A000E115C02E1080E1D
:105A6000105C28E2800E1024126E000E1120136EBE
:105A700012C0E1FF13C0E2FF010EE76E900E10248A
:105A8000126E000E1120136E12C0E1FF13C0E2FF70
:105A9000010EE76E880E1024126E000E1120136E98
:105AA00012C0E1FF13C0E2FF000EE76E102AD8B06B
:105AB000112AD2D7ECCF13F0ECCF12F0ECCF11F0CB
:105AC000ECCF10F01200D9CFEDFFE9CFD9FF10C015
:105AD000EDFF11C0EDFF12C0EDFF13C0EDFF020E90
:105AE000DBCF10F03CEC2BF0000EED6E400EED6EB7
:105AF000640EBBEC2BF0020EE926CA0E1024116EC8
:105B0000126A3F0E1222136A000E132211C0F6FF12
:105B100012C0F7FF13C0F8FF0900F5CF11F01150C4
:105B200088EC2BF0200E5AEC2BF0000EED6E400EA0
:105B3000ED6E760EBBEC2BF0020EE92656EC2BF048
:105B4000116A126ACA0E10263F0E1122000E12228E
:105B500010C0F6FF11C0F7FF12C0F8FF0900F5CF23
:105B600010F0105064EC16F0ECCF13F0ECCF12F004
:105B7000ECCF11F0ECCF10F0ECCFD9FF1200D9CF61
:105B8000EDFFE9CFD9FF10C0EDFF11C0EDFF12C04E
:105B9000EDFF13C0EDFF14C0EDFF15C0EDFF16C003
:105BA000EDFF17C0EDFF020EDBCF10F0116A126A95
:105BB000136A146A000E145C02E1040E135C22E204
:105BC000D60E1324156E3F0E1420166E176A000EA3
:105BD000172215C0F6FF16C0F7FF17C0F8FF09001F
:105BE000F5CF15F01550101805E11150156E152A56
:105BF000155009D0132AD8B0142A13C011F014C0BC
:105C000012F0D8D7E86AECCF17F0ECCF16F0ECCF53
:105C100015F0ECCF14F0ECCF13F0ECCF12F0ECCF8A
:105C200011F0ECCF10F0ECCFD9FF1200D9CFEDFF7F
:105C3000E9CFD9FF10C0EDFF11C0EDFF12C0EDFF9D
:105C400013C0EDFF14C0EDFF15C0EDFF16C0EDFF52
:105C500017C0EDFF020EDBCF10F0116A126A136A53
:105C6000146A000E145C02E1080E135C22E2CE0EF0
:105C70001324156E3F0E1420166E176A000E17229D
:105C800015C0F6FF16C0F7FF17C0F8FF0900F5CFE3
:105C900015F01550101805E11150156E152A155004
:105CA00009D0132AD8B0142A13C011F014C012F06E
:105CB000D8D7E86AECCF17F0ECCF16F0ECCF15F0A0
:105CC000ECCF14F0ECCF13F0ECCF12F0ECCF11F0DE
:105CD000ECCF10F0ECCFD9FF1200D9CFEDFFE9CF18
:105CE000D9FF10C0EDFF11C0EDFF12C0EDFF13C0D2
:105CF000EDFF14C0EDFF15C0EDFF16C0EDFF17C09E
:105D0000EDFF020EDBCF10F0116A126A136A146AFB
:105D1000000E145C02E1040E135C22E2DA0E13247E
:105D2000156E3F0E1420166E176A000E172215C04E
:105D3000F6FF16C0F7FF17C0F8FF0900F5CF15F002
:105D40001550101805E11150156E152A155009D07F
:105D5000132AD8B0142A13C011F014C012F0D8D7E7
:105D6000E86AECCF17F0ECCF16F0ECCF15F0ECCFE3
:105D700014F0ECCF13F0ECCF12F0ECCF11F0ECCF2D
:105D800010F0ECCFD9FF1200D9CFEDFFE9CFD9FF4A
:105D900010C0EDFF020EDBCF10F03CEC2BF0000E3C
:105DA000ED6E400EED6E1A0EBBEC2BF0020EE926E6
:105DB000105088EC2BF056EC2BF010C0A5F0000131
:105DC000A551ED6E010E89EC31F0E92A82EC16F056
:105DD000000E88EC16F0000EED6E400EED6E2C0EEF
:105DE000E9EC2FF0020EE926400E88EC16F0000ECA
:105DF000ED6E400EED6E3E0EE9EC2FF0020EE92640
:105E00004A0E88EC16F00001A55192EC16F0640ED3
:105E1000FAEC16F0ECCF10F0ECCFD9FF120010C066
:105E2000EDFF11C0EDFF12C0EDFF13C0EDFF14C078
:105E3000EDFF106A116A000E115C02E1040E105CA5
:105E40001CE2CA0E1024126E3F0E1120136E146A4B
:105E5000000E142212C0F6FF13C0F7FF14C0F8FFA3
:105E60000900F5CF12F0000EED6E125059EC31F032
:105E7000E92A102AD8B0112ADED73CEC2BF0000E0C
:105E8000ED6E400EED6E500EBBEC2BF0020EE926CF
:105E900056EC2BF0ECCF14F0ECCF13F0ECCF12F06B
:105EA000ECCF11F0ECCF10F0120010C0EDFF010E9E
:105EB00080EC16F0100E78EC16F00A0E12EC17F0CB
:105EC0000001AA6B0001AB6B0001AC6B3AEC28F04F
:105ED000010E00018D6FBF0EF66E3F0EF76E000EC5
:105EE000F86E0900F5CF10F0010EED6E105059EC70
:105EF00031F0E92A8CEC2FF03CEC2BF0000EED6E2B
:105F0000410EED6EDE0EBBEC2BF0020EE92656ECD8
:105F10002BF0ECCF10F0120010C0EDFF0001A56BCC
:105F20000001A8510BE0080E9AEC31F00001A96FB6
:105F3000A951ED6E3CEC22F0E92A1AD03CEC2BF092
:105F4000000EED6E410EED6ECE0EBBEC2BF0020E90
:105F5000E9260001A55188EC2BF056EC2BF0010E40
:105F60009AEC31F0106E1050ED6E3CEC22F0E92A04
:105F7000ECCF10F0120082EC16F0000E88EC16F058
:105F8000000EED6E430EED6E540EE9EC2FF0020E96
:105F9000E926400E88EC16F0000EED6E430EED6E15
:105FA0005A0EE9EC2FF0020EE926060E88EC16F0E8
:105FB000000EED6E430EED6E600EE9EC2FF0020E5A
:105FC000E926480E88EC16F00001A55192EC16F077
:105FD0001200F66EE9CFD9FFDCCFF7FFDC50E8BE48
:105FE00008D0F86E0900F55003E094EC16F0FAD7EB
:105FF0001200D9CF06F0DACF07F0F6CFD9FFF7CFEE
:10600000DAFFDE5003E094EC16F0FBD706C0D9FFB0
:1060100007C0DAFF120010C0EDFF640E0001A55D9D
:1060200008E2A529106E1050ED6E3CEC22F0E92A32
:106030000FD03CEC2BF0000EED6E410EED6E7A0EA3
:10604000BBEC2BF0020EE92656EC2BF0E86A01D0EF
:10605000010EECCF10F01200E9CFD9FF0A6EDCCFB1
:10606000E1FFDCCFE2FFDC52DCCF03F0DCCF04F059
:10607000E6CF06F0E6CF07F010EE06F00A50DCECB3
:1060800016F0E9CFD9FFDCCFE1FFDCCFE2FF06C09D
:10609000E6FF07C0E6FF120010C0EDFF0001A551AA
:1060A00008E0A505106E1050ED6E3CEC22F0E92AD8
:1060B0000FD03CEC2BF0000EED6E410EED6E9E0EFF
:1060C000BBEC2BF0020EE92656EC2BF0E86A01D06F
:1060D000010EECCF10F012000001AC510BE00F0EDE
:1060E00088EC16F04D0E94EC16F0280EFAEC16F033
:1060F0000001AC6B1200F66EE9CFD9FFDCCFF7FFE1
:10610000DCCFF8FFDCCFE1FFDCCFE2FFB4EF16F02D
:10611000F66EE9CFD9FFDCCFF7FFDCCFF8FFDCCF9D
:10612000E1FFDCCFE2FFB6EF16F0036EE9CFD9FF57
:10613000DCCF04F0DCCFE1FFDCCFE2FFF2EF16F0C2
:10614000036EE9CFD9FFDCCF04F0DCCFE1FFDCCF79
:10615000E2FF18EF17F0E9CFD9FFDCCFF8FFDCCF73
:10616000F7FFDCCFF6FF9CEF16F0E9CFD9FF036E07
:10617000DCCF04F0DCCF05F0DC50A8EF16F0E9CF5F
:10618000D9FFDCCFF6FFDCCFF7FFDCCFF8FFE4EF81
:1061900016F0F66EE9CFD9FFDCCFF7FFDCCFF8FFC2
:1061A0009AEF16F0F66EE9CFD9FFDCCFF7FFDCCF20
:1061B000F8FF9EEF16F0F66EE9CFD9FFDCCFF7FFC0
:1061C000DCCFF8FFE6EF16F0F66EE9CFD9FFDCCFB3
:1061D000F7FFDCCFF8FFAAEF16F0A96EE9CFD9FFE1
:1061E000DCCFE1FFDCCFE2FF1AEF17F0A96EE9CFB9
:1061F000D9FFDCCFE1FFDCCFE2FF1CEF17F0E9CFE6
:10620000D9FFDCCF03F0DCCF04F052EF16F0E9CF7A
:10621000D9FFDCCF03F0DCCF04F074EF16F0E9CF48
:10622000D9FFDCCF03F0DCCF04F0A4EF16F0036E4F
:10623000E9CFD9FFDCCF04F0DC50BAEF16F0E9CF9C
:10624000D9FFDCCF03F0DCCF04F0BCEF16F0E9CFD0
:10625000D9FFDCCF03F0DCCF04F01EEF17F0036EA4
:10626000E9CFD9FFDCCF04F0B8EF16F0120012002E
:1062700012001200120012001200D9CFEDFFE9CF78
:10628000D9FFECCFD9FF1200D9CFEDFFE9CFD9FF6D
:10629000ECCFD9FF1200D9CFEDFFE9CFD9FFECCF7A
:1062A000D9FF1200D9CFEDFFE9CFD9FFECCFD9FF4D
:1062B0001200E9CFD9FFDCCF03F060EF16F0E9CF91
:1062C000D9FFDCCF03F068EF16F0E9CFD9FFDCCFC0
:1062D00003F06AEF16F0E9CFD9FFDCCF03F06EEFE1
:1062E00016F0E9CFD9FFDCCF03F072EF16F0E9CF5B
:1062F000D9FFDCCF03F0F6EF16F0E9CFD9FFDCCF02
:1063000003F0F8EF16F0E9CFD9FFDCCF03F0AEEFE2
:1063100016F0A96EE9CFD9FFDC50B2EF16F0E9CF45
:10632000D9FFDCCF03F0F4EF16F03AEC16F004C01E
:10633000F3FF1200A96EB0EF16F0A6EF16F01200F0
:0663400012001200120021
:00000001FF
